:020000042000DA
:1000000000000120910100207F03002081030020D7
:1000100083030020850300208703002000000000E8
:100020000000000000000000000000008903002024
:100030008B030020000000008D0300208F030020B0
:1000400091030020930300209503002097030020D4
:10005000990300209B0300209D0300209F030020A4
:10006000A1030020A3030020B9050020DD05002026
:10007000A9030020AB030020AD030020AF03002044
:10008000B1030020B3030020B503002009080020BD
:10009000B9030020BB030020BD030020BF030020E4
:1000A000C1030020C3030020C5030020790E0020F7
:1000B000710F0020CB030020CD030020CF030020D0
:1000C000D1030020D3030020D5030020D703002054
:1000D000D9030020DB030020DD030020DF03002024
:1000E000E1030020E3030020E5030020E7030020F4
:1000F000E9030020EB030020ED030020EF030020C4
:10010000F1030020F3030020F5030020F703002093
:10011000F9030020FB030020FD030020FF03002063
:10012000010400200304002005040020070400202F
:10013000090400200B0400200D0400200F040020FF
:1001400011040020130400201504002017040020CF
:10015000190400201B0400201D0400201F0400209F
:10016000210400202304002025040020270400206F
:10017000290400202B0400202D0400202F0400203F
:1001800031040020330400200000000000000000C3
:100190004FF0000BDFF8BE020068DFF8B612096806
:1001A00001F0030100F01C00142801D14BF0020BF8
:1001B000002901D04BF0010BBBF1000F05D0A7487F
:1001C000A749DFF8722200F09FF8A64880470BF09D
:1001D000020ABAF1000F0CD0DFF86E02DFF86E12DF
:1001E00002680B680FB44FF000024FF0FF0302608B
:1001F0000B609D484FF000024FF00103022808D128
:10020000DFF83A120A60DFF83E120A60DFF83212B5
:100210000B60012808D1DFF82A120A60DFF82612E5
:100220000A60DFF81A120B609048002809D1904844
:100230009049914A00F030F890489149914A00F075
:100240002BF891489149924A00F026F8914892493A
:10025000DFF8E22100F058F8BBF1000F10D08F4812
:100260008F49DFF8D62100F04FF80BF0020ABAF1FF
:10027000000F05D00FBC02600B6000BFAFF3008021
:10028000DFF820020FF2030E00474FF000004FF09E
:100290000001DFF814F2FEE72DE9F841884225D08D
:1002A000B2EB010200D5FEE740EA010313F00303BD
:1002B00002D000F01DF819E04FF000039046121133
:1002C000F7D09A421CBFF0C8F0C103F10103F8D186
:1002D00008F00F08B8F1000F08D004780C7000F196
:1002E000010001F10101B8F10108F6D1BDE8F88182
:1002F00008B54FF0000303780B7000F1010001F125
:100300000101013AF7D108BD884237D000F0030659
:10031000002E14D04FF00405A5EB06044FF008079B
:1003200007FB06F8914669FA08F9002C07D080F817
:10033000009069FA07F900F10100013CF5E74FF080
:1003400000060F46091A88460911914614461546BB
:10035000B14206D018BFA0E8340206F10106B1424E
:10036000F8D108F00F08B8F1000F07D002704FEA7B
:10037000322200F10100B8F10108F4E77047FEE70E
:10038000FEE7FEE7FEE7FEE7FEE7FEE7FEE7FEE745
:10039000FEE7FEE7FEE7FEE7FEE7FEE7FEE7FEE735
:1003A000FEE7FEE7FEE7FEE7FEE7FEE7FEE7FEE725
:1003B000FEE7FEE7FEE7FEE7FEE7FEE7FEE7FEE715
:1003C000FEE7FEE7FEE7FEE7FEE7FEE7FEE7FEE705
:1003D000FEE7FEE7FEE7FEE7FEE7FEE7FEE7FEE7F5
:1003E000FEE7FEE7FEE7FEE7FEE7FEE7FEE7FEE7E5
:1003F000FEE7FEE7FEE7FEE7FEE7FEE7FEE7FEE7D5
:10040000FEE7FEE7FEE7FEE7FEE7FEE7FEE7FEE7C4
:10041000FEE7FEE7FEE7FEE7FEE7FEE7FEE7FEE7B4
:10042000FEE7FEE7FEE7FEE7FEE7FEE7FEE7FEE7A4
:10043000FEE7FEE7704700000000A2A2A2A2008033
:100440000340088003401080034030800340348024
:1004500003403880034018080240000000F00020EC
:1004600000000120751000200000000000000000C6
:10047000000000200000002090010020B0040020B7
:10048000B00400204014002040140020401400203C
:10049000701800207018002080190020801900209A
:1004A00000F00020E91200203111002000000000BF
:1004B00010B5054C237833B9044B13B10448AFF39E
:1004C00000800123237010BD701800200000000080
:1004D0001414002008B5034B1BB103490348AFF3C4
:1004E000008008BD000000007418002014140020D3
:1004F00001607047006870470EB503FA01F303EA24
:10050000020301686FEA020201EA020141EA030103
:1005100001600EBD006800EA020020FA01F0704799
:1005200001807047008870470EB503FA01F303EAB3
:10053000020301886FEA020201EA020141EA0301B3
:1005400001800EBD008800EA020020FA01F0704729
:1005500001707047007870470EB503FA01F303EAA3
:10056000020301786FEA020201EA020141EA030193
:1005700001700EBD007800EA020020FA01F0704719
:1005800080B483B000AF78600B46FB707B6803F0EB
:1005900070427B685B0123F07E4323F01F0313430B
:1005A000FA789200134403F100731B68DBB218461B
:1005B0000C37BD4680BC7047684620F007018D4669
:1005C00089B500AF044800F01BF800BFBD46BDE888
:1005D00089408546704700BF18190020684620F002
:1005E00007018D4689B500AF044800F009F800BF47
:1005F000BD46BDE889408546704700BFD818002039
:1006000080B584B000AF78607B687D4A934204D0A7
:100610007B687C4A934200D000BE7B68784A934254
:1006200004D07B68774A934240F0DA807B681B688D
:100630001B7ADBB203F00F03FB73FB7B0C2B00F286
:10064000CD8001A252F823F07D060020DD070020B6
:100650009B060020F5060020B9060020DD070020DB
:10066000D7060020DD070020DD070020DD07002081
:10067000DD070020DD070020B90600207B689B6AAB
:10068000002B00D100BE7B689B6A002B00F0AA8083
:100690007B689B6A78689847A4E07B685B6A002B5C
:1006A00000D100BE7B685B6A002B00F09D807B68F8
:1006B0005B6A7868984797E07B681B6A002B00D1DB
:1006C00000BE7B681B6A002B00F090807B681B6A71
:1006D000786898478AE07B68DB69002B00D100BE10
:1006E0007B68DB69002B00F083807B68DB697868BE
:1006F00098477DE07B681B68283300211846FFF788
:100700003FFF0346002B0CD07B68DB6A002B00D137
:1007100000BE7B68DB6A002B03D07B68DB6A7868ED
:1007200098477B681B68283301211846FFF728FF8C
:100730000346002B0CD07B681B6B002B00D100BE46
:100740007B681B6B002B03D07B681B6B786898471A
:100750007B681B68283302211846FFF711FF034608
:10076000002B0CD07B685B6B002B00D100BE7B683C
:100770005B6B002B03D07B685B6B786898477B686A
:100780001B68283303211846FFF7FAFE0346002BA7
:100790000CD07B689B6B002B00D100BE7B689B6BF1
:1007A000002B03D07B689B6B786898477B681B683D
:1007B000283304211846FFF7E3FE0346002B19D027
:1007C0007B68DB6B002B00D100BE7B68DB6B002BF2
:1007D00010D07B68DB6B786898470BE000BE0AE0BE
:1007E00000BF08E000BF06E000BF04E000BF02E079
:1007F00000BF00E000BF00BF1037BD4680BD00BF96
:1008000018190020D818002080B582B000AF0F4B17
:100810005B68FB710D4B9B68DAB2FB791340FB718F
:10082000FB7903F00203BB71BB79002B01D000F010
:10083000E7F8FB7903F001037B717B79002B01D092
:1008400000F006F800BF0837BD4680BD00600140DB
:1008500080B584B000AF634B1B78052B6DD0052BA2
:1008600000F3AF80012B02D0022B39D0A9E05E4B00
:100870001B889BB2002B2FD05C4B1B685A4A1288F6
:1008800092B21146184600F009FA7860564B1B8860
:100890009BB21A467B6893420FD2534B1B889AB285
:1008A0007B689BB2D31A9AB24F4B1A804F4B1A688F
:1008B0007B6813444D4A136090E04B4B00221A8032
:1008C0004B4B1B68002B03D0464B02221A7085E06D
:1008D000444B03221A7081E000BE00F0B9F97DE0BC
:1008E000434B1B68002B24D0424B1B68404A1268C4
:1008F0001146184600F0D2F9B8603D4B1B68BA6843
:100900009A420CD23A4B1A68BB68D31A384A136021
:10091000384B1A68BB681344364A13605EE0364BA6
:100920009B68354A23F0010393602E4B03221A7013
:1009300054E000BE00F08CF950E02D4B1B68002BFA
:100940001BD12E4B1B68002B14D02C4B1B68294845
:1009500098470346264A1360254B1B68002B0CD191
:10096000254B9B68244A23F0010393601D4B03220F
:100970001A7002E000BE00F06BF91D4B1B68002BE3
:1009800009D11D4B9B681C4A23F001039360154B52
:1009900003221A7022E0174B1B68154A1268114691
:1009A000184600F07BF9F860114B1A68FB68D31AFF
:1009B0000F4A13600F4B1A68FB6813440D4A13600B
:1009C0000CE00D4B9B680C4A23F001039360002060
:1009D00000F01EF9034B00221A7000BF00BF103751
:1009E000BD4680BDB118002094180020901800204A
:1009F0009C1800209818002000600140AC180020CE
:100A000080B584B000AF7C4B1B69FB81FB8923F46C
:100A1000FF4323F07F03BB81FB89FB72774B1B787D
:100A2000052B00F2D68001A252F823F0450A0020DF
:100A3000BF0B0020BF0B00209D0A0020EB0A002006
:100A4000930B0020BB89002B00F0CA80FB7AF12BAE
:100A500006D0FB7A7B717B79184600F04FF9BFE036
:100A6000674B00221A80674B1B68654A128892B256
:100A70001344FA7A1A70624B1B889BB201339AB204
:100A80005F4B1A805F4B1B685D4A128892B2134419
:100A900000221A70594B04221A70A1E0BB89002B66
:100AA00000F0A080FB7AFB71574B1B78DBB2FA7920
:100AB0009A4215D1524B00221A80524B1B68504A61
:100AC000128892B21344FA791A704D4B1B889BB26C
:100AD00001339AB24A4B1A80484B04221A7081E0C3
:100AE000FB79184600F00AF97CE0BB89002B06D0A0
:100AF000FB7A3B723B7A184600F000F974E0414BF8
:100B00001A683F4B1B889BB2013B13441B78F12BA7
:100B100016D13C4B1B683A4A128892B21344FA7AB7
:100B20001A70384B1A68364B1B889BB2013B134432
:100B30001B78184600F0E2F8304B00221A7053E0A0
:100B40002F4B1B889AB2314B1B889A4210D2FB7AEA
:100B50007B722C4B1B682A4A128892B213447A7A11
:100B60001A70274B1B889BB201339AB2244B1A8010
:100B7000234B1B889AB2254B1B889A4234D1204BB9
:100B80001B889BB2184600F043F81C4B00221A70D9
:100B90002AE0BB89002B0BD11A4B1B680133FA7A70
:100BA0001A70022000F034F8144B00221A701EE074
:100BB000FB7ABB72BB7A184600F0A0F817E0BB893D
:100BC000002B13D0FB7ABB71BB79184600F096F866
:100BD0000CE0002000F01CF8084B00221A7006E020
:100BE00000BF04E000BF02E000BF00E000BF00BFA4
:100BF0001037BD4680BD00BF00600140B118002025
:100C0000A6180020A01800208C180020A41800208E
:100C100080B582B000AF0346FB800A4B1B68002BF7
:100C20000CD0084B1B68084A1268F9881046984790
:100C3000044B00221A60054B00221A7000BF0837CF
:100C4000BD4680BDA8180020A0180020B0180020C4
:100C500080B582B000AF0E4B1B78DBB2002B13D0F7
:100C60000C4B1B889BB21846FFF7D2FF0A4B1B6840
:100C7000094A43F001031360074B1B6803F00103AB
:100C80007B607B68002BF7D100BF0837BD4680BD75
:100C9000B0180020A61800200060014080B485B084
:100CA00000AF78603960144B1B68134A23F00403CB
:100CB00013600023FB60104B5B6803F00103BB6013
:100CC0000DE07A68FB6813441A780B4B1A61FB68D5
:100CD0000133FB60084B5B6803F00103BB60BB683A
:100CE000002B03D0FA683B689A42EAD3FB681846A7
:100CF0001437BD4680BC70470060014080B582B0AB
:100D000000AF0346FB71064B1B68002B04D0044B5D
:100D10001B68FA791046984700BF0837BD4680BD6A
:100D2000B418002080B485B000AFF860B9607A6074
:100D3000FB704D484D4B1A68F97813469B001344DD
:100D4000DB01034403F5E27319604949474B1A6814
:100D500013469B0013449B000B440433FA681A604B
:100D60004349424B1A6813469B0013449B000B44B3
:100D70000833BA681A603E493C4B1A6813469B0018
:100D800013449B000B440C331B683948374A1168E5
:100D90001A0C12040B469B000B449B0003440C33BB
:100DA0001A607B68B3F5803F0FD97B68A3F5803369
:100DB000304A1361BB6803F580332E4AD360FB6869
:100DC00003F580332B4A93601AE02949274B1A68B0
:100DD00013469B0013449B000B440C331B687A683A
:100DE00092B211462248214A1268194313469B00C9
:100DF00013449B0003440C3319601E4B00221A61FC
:100E00001B491A4B1A6813469B0013449B000B4462
:100E10000C331B681648154A126843F4E001134668
:100E20009B0013449B0003440C3319600E490F4B85
:100E30001A6813469B001344DB010B4403F5E0736F
:100E400001221A600849094B1A6813469B00134493
:100E5000DB010B4403F5E67300221A6000BF143770
:100E6000BD4680BC704700BF00002842D01800205B
:100E700000400140B8180020684620F007018D4668
:100E800089B500AF354A364B1B6803F5287301213D
:100E900042F823103349324B1A6813469B0013441F
:100EA0009B000B440C331B682E482D4A126823F418
:100EB000E00113469B0013449B0003440C3319606C
:100EC000274B1B680133264A1360254B1B68042BF4
:100ED00002D1234B00221A60234B1B69002B17D031
:100EE000224B1B68042B03D1204B00221A6004E024
:100EF0001E4B1B6801331D4A13601B4B98681A4B2D
:100F0000D968194B1A69184B1B7DFFF70BFF1EE0C0
:100F10001449134B1A6813469B0013449B000B445F
:100F20000C331B6803F4E003002B10D10C4B0022A0
:100F30001A600E4B00221A600B4B01221A700A4BEA
:100F40005B68002B03D0084B5B680120984700BF0B
:100F5000BD46BDE889408546704700BF0000284275
:100F6000D418002000400140B8180020D0180020FC
:100F7000684620F007018D4681B583B000AF394B3C
:100F80001B683B603B6803F470633B603B68002B6D
:100F90002FD03549354B1A6813469B001344DB01AB
:100FA0000B4403F502731B68002B0AD0304B02225E
:100FB0001A702F4B5B68002B03D02D4B5B6802200F
:100FC00098472949294B1A6813469B001344DB01B3
:100FD0000B4403F503731B68002B0AD0244B032238
:100FE0001A70234B5B68002B03D0214B5B680320F6
:100FF00098471C4B1B683B603B6803F470433B60A5
:101000003B68002B0AD01A4B04221A70184B5B68FD
:10101000002B03D0164B5B680420984700237B60AD
:1010200014E011497A6813469B001344DB010B441A
:1010300003F5E47301221A600B4A7B6803F52873F9
:10104000012142F823107B6801337B607B68032B0E
:10105000E7D900BF00BF0C37BD46BDE881408546DB
:10106000704700BF0040014000002842D418002013
:10107000B818002080B500AF00F030F8044B5B6971
:10108000034A43F400735361FFF7D4F900BF80BDF6
:1010900000ED00E080B483B000AF0E4BD3F84C31CC
:1010A0003B603B684FF60202934204D03B680A4A19
:1010B000934203D005E001237B6005E002237B60BF
:1010C00002E000237B6000BF7B6818460C37BD46FA
:1010D00080BC70470080034002F8010080B582B0F8
:1010E00000AFFFF7D7FF78607B68012B02D100F0DB
:1010F00007F800E000BF00BF0837BD4680BD000014
:1011000080B400AF094BD3F89830084A43F4807399
:10111000C2F89830054BD3F89830044A23F0806326
:10112000C2F8983000BFBD4680BC704700800340C5
:1011300080B5C2B000AF00F06BF83B460021184606
:1011400000F07DF83B460121184600F078F807F1E1
:1011500008030021184600F09CF807F1080301215C
:10116000184600F096F8FEE780B582B000AF7860D0
:1011700079680448FFF7BCF900F016F800BF08379B
:10118000BD4680BD0400005080B582B000AF054868
:10119000FFF7B0F978607B68DBB218460837BD46C8
:1011A00080BD00BF0C00005080B500AF00BFFFF74E
:1011B000EBFF00BF80BD80B582B000AF4FF0A04014
:1011C000FFF798F97860FFF7EFFF7B68DBB218460E
:1011D0000837BD4680BD80B582B000AF0346FB71C5
:1011E000FB79002B03D10920FFF7BEFF05E0FB7957
:1011F000012B02D11820FFF7B7FF00BF0837BD460B
:1012000080BD80B500AF0A20FFF7AEFF00BF80BDF4
:1012100080B500AF0020FFF7DEFF0120FFF7A4FF3D
:101220000120FFF7D8FF0120FFF79EFF00BF80BD20
:1012300080B500AF0D20FFF797FF00BF80BD90B5D0
:1012400085B000AF78600B46FB70FB781846FFF75F
:10125000C2FFFFF7EDFF0320FFF786FFFFF7E8FF70
:101260000023FB600CE00E20FFF77EFFFB687A682E
:10127000D418FFF7A0FF03462370FB680133FB601F
:10128000FB68042BEFDDFFF7BCFF00BF1437BD4642
:1012900090BD90B585B000AF78600B46FB70FB78D1
:1012A0001846FFF798FFFFF7C3FF0220FFF75CFF28
:1012B000FFF7BEFF0023FB600CE00F20FFF754FF99
:1012C000FB687A68D418FFF776FF03462370FB6843
:1012D0000133FB60FB68FF2BEFDDFFF792FF00BFE0
:1012E0001437BD4690BD000070B50D4E0D4D761BF8
:1012F000B61006D0002455F8043B01349847A642A6
:10130000F9D1094E094D00F085F8761BB61006D0CC
:10131000002455F8043B01349847A642F9D170BD2A
:101320002C1400202C140020341400202C14002035
:10133000024B13B1024800F005B8704700000000EE
:1013400051130020002301461A46184600F01AB82F
:1013500038B5084B084D5B1B9C1007D0043B1D445F
:10136000013C55F804399847002CF9D1BDE83840C4
:1013700000F056B83814002034140020704700BF25
:10138000704700BF2DE9F047DFF880A00646DAF885
:10139000000098460F469146FFF7F0FF1A4B1B6876
:1013A000D3F8484124B365681F2D26DC5EB96B1C59
:1013B0000235DAF80000636044F82570FFF7E0FFBB
:1013C0000020BDE8F087012304EB8501C1F8889077
:1013D000D4F88821AB401A43022EC4F88821C1F802
:1013E0000881E4D1D4F88C211343C4F88C31DEE7B2
:1013F00003F5A674C3F84841D5E7DAF80000FFF713
:10140000BFFF4FF0FF30DCE7101400206818002009
:1014100040140020F8B500BFF8BC08BC9E467047D9
:10142000F8B500BFF8BC08BC9E46704731130020D9
:10143000D5040020B10400200000000000000000DE
:10144000000000002C17002094170020FC1700203B
:10145000000000000000000000000000000000008C
:10146000000000000000000000000000000000007C
:10147000000000000000000000000000000000006C
:10148000000000000000000000000000000000005C
:10149000000000000000000000000000000000004C
:1014A000000000000000000000000000000000003C
:1014B000000000000000000000000000000000002C
:1014C000000000000000000000000000000000001C
:1014D000000000000000000000000000000000000C
:1014E00000000000000000000100000000000000FB
:1014F0000E33CDAB34126DE6ECDE05000B000000C0
:1015000000000000000000000000000000000000DB
:1015100000000000000000000000000000000000CB
:1015200000000000000000000000000000000000BB
:1015300000000000000000000000000000000000AB
:1018600000000000000000005819002000000000E7
:040000052000019145
:00000001FF
